:06065600120631020487C8
:0F06310053D9BF1205F51205571204DC0200065B
:1005F500E4FFFE75FFA00FBF00010EEF64144E70FF
:04060500F575EF0296
:0106090022CE
:1004DC00E4FFFE53E3DF75B61043E32075AB800FEA
:1004EC00BF00010EEF64144E70F543ABC0E5AB30AA
:0804FC00E5FB75A90275B2874A
:0105040022D4
:1005570075F1BF75F2F775F3FB75A43075A5807556
:0F056700D4CF75D5FF75D6FF75E10175E2C022BF
:0400060075D11B2273
:100086006100000000316253C4F5A697B988DBEA27
:100096007D4C1F2E4372211087B6E5D4FACB98A962
:1000A6003E0F5C6D86B7E4D5427320113F0E5D6C42
:1000B600FBCA99A8C5F4A796013063527C4D1E2F42
:1000C600B889DAEB3D0C5F6EF9C89BAA84B5E6D712
:1000D600407122137E4F1C2DBA8BD8E9C7F6A59422
:1000E60003326150BB8AD9E87F4E1D2C0233605122
:1000F600C6F7A495F8C99AAB3C0D5E6F4170231202
:1001060085B4E7D67A4B1829BE8FDCEDC3F2A190F1
:100116000736655439085B6AFDCC9FAE80B1E2D3E1
:1001260044752617FCCD9EAF38095A6B45742716C1
:1001360081B0E3D2BF8EDDEC7B4A192806376455C1
:10014600C2F3A0914776251483B2E1D0FECF9CADD1
:100156003A0B586904356657C0F1A293BD8CDFEEA1
:1001660079481B2AC1F0A3920534675678491A2BA1
:10017600BC8DDEEF82B3E0D1467724153B0A596881
:04018600FFCE9DAC5F
:0A044E008B248A2589268C278D282F
:100458007FFFE5281528AC27700215274C601FABD5
:10046800240526E526AA257002052514F91202CCD2
:0E0478006F2400F582E43400F583E0FF80D4A9
:010486002253
:10050500A2AF9200C2AF75FFA075EF028F828E83F6
:1005150075B7A575B7F1438F0175FFA075EF02EDAE
:08052500F0538FFEA20092AF1B
:01052D0022AB
:10061F00A2AF9200C2AF8F828E83E493FFA20092AB
:01062F00AF1B
:0106300022A7
:10052E00A2AF9200C2AF75FFA075EF028F828E83CD
:10053E0075B7A575B7F1438F0375FFA075EF02E48C
:08054E00F0538FFCA20092AFF4
:010556002282
:1005DD00E589540F4420F589438E08758D2BD28EF5
:0805ED00759830E4FF0206409E
:08033A008B248A2589268D27FA
:10034200E4F5287F01120640E528C39527502A12BA
:10035200060AAB24AA25A926AF2805288F82758311
:10036200001202E5F59920990612065CEF60F71279
:10037200065CEF7004C29980CFE4FF120640AF28FA
:010382002258
:08040F008B248A2589268D2724
:10041700E4F528E528C39527502A12060A209806EE
:1004270012065CEF60F712065CEF7018C298AB24F7
:10043700AA25A926AF2805288F82758300E599127A
:06044700031280CFAF2874
:01044D00228C
:0F064000EF6006C29C4390802253907FD29C2291
:10060A00538ECF75CA4075CBB085CACC85CBCD7514
:05061A00C804C2CF225C
:06065C00A2CFE433FF22EF
:0300000002023DBC
:0F023D0053D9BF787FE4F6D8FD75812802028778
:03000300020803ED
:03000B0002080BDD
:03001300020813CD
:03001B0002081BBD
:03002300020823AD
:03002B0002082B9D
:030033000208338D
:03003B0002083B7D
:030043000208436D
:03004B0002084B5D
:030053000208534D
:03005B0002085B3D
:030063000208632D
:03006B0002086B1D
:030073000208730D
:03007B0002087BFD
:03008300020883ED
:09018A00010900010A000108004E
:060487001205DD75912055
:10048D001201948F21E5097013050AE50AD3940A28
:10049D005004E5216006750A0A120591E50860E031
:0304AD00120591A4
:0204B00080DBEF
:0A0591007FFF7E7912061FBF5A0F8C
:0F059B007BFF7A0879008B228A2389241203348C
:0105AA00222E
:1001940074FFF522F5237B007A00790B7D041204A9
:1001A4000FEF640460037F0022E50DD39410500721
:1001B400E50DC3940450037F0022E50DD39404405D
:1001C400187B007A00790FE50D24FCFD12040FE57D
:1001D4000D24FC6F60037F00227B007A00790BE51D
:1001E4000D24FFFDE434FFFC12044E740A250DF8BF
:1001F400E66F60037F00221204B28E228F23C3EEC7
:100204006480948050037F0122750BFF050CE52365
:100214002404F50D7B007A00790B24FFFDE434FF00
:10022400FC12044E740A250DF8A6077B007A0079A7
:080234000BAD0D12033A7F012E
:01023C00229F
:1004B200E50C240E601324FE601224FE601124FE5B
:1004C20060102408700F02064F0205760203CA026A
:0A04D20003830205AB7EFF7FFF22CB
:07064F00750901E4FEFF2222
:100576001205C4E50970028006C3EE940850057E94
:0A058600FF7FFF2212052EE4FEFFA6
:010590002248
:1003CA001205C48E248F25E50D24FAF526E5097059
:1003DA00057EFF7FFF22E4F527E527C395265021F6
:1003EA00C3E5249408400E74102527F8E6FDAF25CE
:1003FA00AE241205050525E525700205240527808A
:04040A00D8E4FEFF35
:01040E0022CB
:100383001205C48E248F25851026E50970057EFF8E
:100393007FFF22E4F527E527C395265025C3E524EF
:1003A30094084009AF25AE2412061F80027F007413
:1003B3000E2527F8A6070525E52570020524052740
:0603C30080D4AF267E008D
:0103C9002211
:1005AB00E50970057EFF7FFF227D5A7FFF7E791262
:0905BB000505750801E4FEFF22AC
:0605C4007B007A00790EB5
:1005CA009000011202E5FE1202CC7C002400FFEC2E
:0305DA003EFE22C0
:10024C00020656E493A3F8E493A34003F68001F26C
:10025C0008DFF48029E493A3F85407240CC8C333B3
:10026C00C4540F4420C8834004F456800146F6DF82
:10027C00E4800B0102040810204080900086E47E8C
:10028C00019360BCA3FF543F30E509541FFEE49377
:10029C00A360010ECF54C025E060A840B8E493A33E
:1002AC00FAE493A3F8E493A3C8C582C8CAC583CA69
:1002BC00F0A3C8C582C8CAC583CADFE9DEE780BE21
:01019300006B
:1002CC00BB010689828A83E0225002E722BBFE0230
:0902DC00E32289828A83E4932263
:1002E500BB010CE58229F582E5833AF583E02250CE
:1002F50006E92582F8E622BBFE06E92582F8E22218
:0D030500E58229F582E5833AF583E4932231
:10031200F8BB010DE58229F582E5833AF583E8F021
:10032200225006E92582C8F622BBFE05E92582C8CD
:02033200F222B5
:060334008A838982E47354
:00000001FF
